{
  "_format": "hh-sol-artifact-1",
  "contractName": "RedditVotingSystem",
  "sourceName": "contracts/.sol",
  "abi": [
    {
      "inputs": [
        {
          "internalType": "uint256",
          "name": "_postOrCommentId",
          "type": "uint256"
        }
      ],
      "name": "checkTotalVotes",
      "outputs": [
        {
          "internalType": "uint256",
          "name": "",
          "type": "uint256"
        }
      ],
      "stateMutability": "view",
      "type": "function"
    },
    {
      "inputs": [
        {
          "internalType": "uint256",
          "name": "_postOrCommentId",
          "type": "uint256"
        },
        {
          "internalType": "address",
          "name": "_user",
          "type": "address"
        }
      ],
      "name": "checkVote",
      "outputs": [
        {
          "internalType": "bool",
          "name": "",
          "type": "bool"
        }
      ],
      "stateMutability": "view",
      "type": "function"
    },
    {
      "inputs": [],
      "name": "createPostOrComment",
      "outputs": [
        {
          "internalType": "uint256",
          "name": "",
          "type": "uint256"
        }
      ],
      "stateMutability": "nonpayable",
      "type": "function"
    },
    {
      "inputs": [
        {
          "internalType": "uint256",
          "name": "_postOrCommentId",
          "type": "uint256"
        }
      ],
      "name": "downVote",
      "outputs": [],
      "stateMutability": "nonpayable",
      "type": "function"
    },
    {
      "inputs": [
        {
          "internalType": "uint256",
          "name": "",
          "type": "uint256"
        }
      ],
      "name": "postsOrComments",
      "outputs": [
        {
          "internalType": "uint256",
          "name": "voteCount",
          "type": "uint256"
        }
      ],
      "stateMutability": "view",
      "type": "function"
    },
    {
      "inputs": [],
      "name": "totalPostsOrComments",
      "outputs": [
        {
          "internalType": "uint256",
          "name": "",
          "type": "uint256"
        }
      ],
      "stateMutability": "view",
      "type": "function"
    },
    {
      "inputs": [
        {
          "internalType": "uint256",
          "name": "_postOrCommentId",
          "type": "uint256"
        }
      ],
      "name": "upVote",
      "outputs": [],
      "stateMutability": "nonpayable",
      "type": "function"
    }
  ],
  "bytecode": "0x608060405234801561001057600080fd5b5061094d806100206000396000f3fe608060405234801561001057600080fd5b506004361061007d5760003560e01c806378ab6e841161005b57806378ab6e84146100ec578063979f65c21461010a578063abb2695f1461013a578063ec859db51461016a5761007d565b80631ae9392d14610082578063269617771461009e5780632d16997b146100ce575b600080fd5b61009c60048036038101906100979190610690565b610186565b005b6100b860048036038101906100b3919061071b565b61036e565b6040516100c59190610776565b60405180910390f35b6100d66103e0565b6040516100e391906107a0565b60405180910390f35b6100f46103e6565b60405161010191906107a0565b60405180910390f35b610124600480360381019061011f9190610690565b61042b565b60405161013191906107a0565b60405180910390f35b610154600480360381019061014f9190610690565b610449565b60405161016191906107a0565b60405180910390f35b610184600480360381019061017f9190610690565b61046d565b005b600080600083815260200190815260200160002090503373ffffffffffffffffffffffffffffffffffffffff168160010160003373ffffffffffffffffffffffffffffffffffffffff1673ffffffffffffffffffffffffffffffffffffffff16815260200190815260200160002060000160009054906101000a900473ffffffffffffffffffffffffffffffffffffffff1673ffffffffffffffffffffffffffffffffffffffff160361026e576040517f08c379a000000000000000000000000000000000000000000000000000000000815260040161026590610818565b60405180910390fd5b60008160010160003373ffffffffffffffffffffffffffffffffffffffff1673ffffffffffffffffffffffffffffffffffffffff16815260200190815260200160002060000160146101000a81548160ff021916908315150217905550338160010160003373ffffffffffffffffffffffffffffffffffffffff1673ffffffffffffffffffffffffffffffffffffffff16815260200190815260200160002060000160006101000a81548173ffffffffffffffffffffffffffffffffffffffff021916908373ffffffffffffffffffffffffffffffffffffffff16021790555060018160000160008282546103639190610867565b925050819055505050565b60008060008085815260200190815260200160002090508060010160008473ffffffffffffffffffffffffffffffffffffffff1673ffffffffffffffffffffffffffffffffffffffff16815260200190815260200160002060000160149054906101000a900460ff1691505092915050565b60015481565b6000600160008154809291906103fb9061089b565b91905055506000806000600154815260200190815260200160002090506000816000018190555060015491505090565b60006020528060005260406000206000915090508060000154905081565b60008060008084815260200190815260200160002090508060000154915050919050565b600080600083815260200190815260200160002090503373ffffffffffffffffffffffffffffffffffffffff168160010160003373ffffffffffffffffffffffffffffffffffffffff1673ffffffffffffffffffffffffffffffffffffffff16815260200190815260200160002060000160009054906101000a900473ffffffffffffffffffffffffffffffffffffffff1673ffffffffffffffffffffffffffffffffffffffff1603610555576040517f08c379a000000000000000000000000000000000000000000000000000000000815260040161054c90610818565b60405180910390fd5b60018160010160003373ffffffffffffffffffffffffffffffffffffffff1673ffffffffffffffffffffffffffffffffffffffff16815260200190815260200160002060000160146101000a81548160ff021916908315150217905550338160010160003373ffffffffffffffffffffffffffffffffffffffff1673ffffffffffffffffffffffffffffffffffffffff16815260200190815260200160002060000160006101000a81548173ffffffffffffffffffffffffffffffffffffffff021916908373ffffffffffffffffffffffffffffffffffffffff160217905550600181600001600082825461064a91906108e3565b925050819055505050565b600080fd5b6000819050919050565b61066d8161065a565b811461067857600080fd5b50565b60008135905061068a81610664565b92915050565b6000602082840312156106a6576106a5610655565b5b60006106b48482850161067b565b91505092915050565b600073ffffffffffffffffffffffffffffffffffffffff82169050919050565b60006106e8826106bd565b9050919050565b6106f8816106dd565b811461070357600080fd5b50565b600081359050610715816106ef565b92915050565b6000806040838503121561073257610731610655565b5b60006107408582860161067b565b925050602061075185828601610706565b9150509250929050565b60008115159050919050565b6107708161075b565b82525050565b600060208201905061078b6000830184610767565b92915050565b61079a8161065a565b82525050565b60006020820190506107b56000830184610791565b92915050565b600082825260208201905092915050565b7f557365722068617320616c726561647920766f74656400000000000000000000600082015250565b60006108026016836107bb565b915061080d826107cc565b602082019050919050565b60006020820190508181036000830152610831816107f5565b9050919050565b7f4e487b7100000000000000000000000000000000000000000000000000000000600052601160045260246000fd5b60006108728261065a565b915061087d8361065a565b925082820390508181111561089557610894610838565b5b92915050565b60006108a68261065a565b91507fffffffffffffffffffffffffffffffffffffffffffffffffffffffffffffffff82036108d8576108d7610838565b5b600182019050919050565b60006108ee8261065a565b91506108f98361065a565b925082820190508082111561091157610910610838565b5b9291505056fea26469706673582212204d6bc8de697884ac81c0de50dc707e5ed52bc535ce5efe599f1a54a01bc01fee64736f6c63430008110033",
  "linkReferences": {},
  "deployedLinkReferences": {}
}