{
  "_format": "hh-sol-artifact-1",
  "contractName": "VotingSystem",
  "sourceName": "contracts/VotingSystem.sol",
  "abi": [
    {
      "anonymous": false,
      "inputs": [
        {
          "indexed": false,
          "internalType": "uint256",
          "name": "postId",
          "type": "uint256"
        },
        {
          "indexed": false,
          "internalType": "address",
          "name": "voter",
          "type": "address"
        },
        {
          "indexed": false,
          "internalType": "int256",
          "name": "vote",
          "type": "int256"
        }
      ],
      "name": "Voted",
      "type": "event"
    },
    {
      "inputs": [
        {
          "internalType": "uint256",
          "name": "_postId",
          "type": "uint256"
        }
      ],
      "name": "downvote",
      "outputs": [],
      "stateMutability": "nonpayable",
      "type": "function"
    },
    {
      "inputs": [
        {
          "internalType": "uint256",
          "name": "_postId",
          "type": "uint256"
        },
        {
          "internalType": "address",
          "name": "_voter",
          "type": "address"
        }
      ],
      "name": "getVote",
      "outputs": [
        {
          "internalType": "int256",
          "name": "",
          "type": "int256"
        }
      ],
      "stateMutability": "view",
      "type": "function"
    },
    {
      "inputs": [
        {
          "internalType": "uint256",
          "name": "_postId",
          "type": "uint256"
        }
      ],
      "name": "upvote",
      "outputs": [],
      "stateMutability": "nonpayable",
      "type": "function"
    }
  ],
  "bytecode": "0x608060405234801561001057600080fd5b50610762806100206000396000f3fe608060405234801561001057600080fd5b50600436106100415760003560e01c806301ddf07014610046578063bc3f931f14610062578063f31fdad414610092575b600080fd5b610060600480360381019061005b91906103ec565b6100ae565b005b61007c60048036038101906100779190610477565b6101d4565b60405161008991906104d0565b60405180910390f35b6100ac60048036038101906100a791906103ec565b61022e565b005b600160008083815260200190815260200160002060003373ffffffffffffffffffffffffffffffffffffffff1673ffffffffffffffffffffffffffffffffffffffff1681526020019081526020016000205403610140576040517f08c379a00000000000000000000000000000000000000000000000000000000081526004016101379061056e565b60405180910390fd5b600160008083815260200190815260200160002060003373ffffffffffffffffffffffffffffffffffffffff1673ffffffffffffffffffffffffffffffffffffffff168152602001908152602001600020819055507fedacc2937db571a0ca3c13b490180e1f824b43e402f4fd87fc30426298ceac09813360016040516101c9939291906105f1565b60405180910390a150565b600080600084815260200190815260200160002060008373ffffffffffffffffffffffffffffffffffffffff1673ffffffffffffffffffffffffffffffffffffffff16815260200190815260200160002054905092915050565b7fffffffffffffffffffffffffffffffffffffffffffffffffffffffffffffffff60008083815260200190815260200160002060003373ffffffffffffffffffffffffffffffffffffffff1673ffffffffffffffffffffffffffffffffffffffff16815260200190815260200160002054036102df576040517f08c379a00000000000000000000000000000000000000000000000000000000081526004016102d69061069a565b60405180910390fd5b7fffffffffffffffffffffffffffffffffffffffffffffffffffffffffffffffff60008083815260200190815260200160002060003373ffffffffffffffffffffffffffffffffffffffff1673ffffffffffffffffffffffffffffffffffffffff168152602001908152602001600020819055507fedacc2937db571a0ca3c13b490180e1f824b43e402f4fd87fc30426298ceac0981337fffffffffffffffffffffffffffffffffffffffffffffffffffffffffffffffff6040516103a6939291906106f5565b60405180910390a150565b600080fd5b6000819050919050565b6103c9816103b6565b81146103d457600080fd5b50565b6000813590506103e6816103c0565b92915050565b600060208284031215610402576104016103b1565b5b6000610410848285016103d7565b91505092915050565b600073ffffffffffffffffffffffffffffffffffffffff82169050919050565b600061044482610419565b9050919050565b61045481610439565b811461045f57600080fd5b50565b6000813590506104718161044b565b92915050565b6000806040838503121561048e5761048d6103b1565b5b600061049c858286016103d7565b92505060206104ad85828601610462565b9150509250929050565b6000819050919050565b6104ca816104b7565b82525050565b60006020820190506104e560008301846104c1565b92915050565b600082825260208201905092915050565b7f596f75206861766520616c7265616479207570766f746564207468697320706f60008201527f73742f636f6d6d656e742e000000000000000000000000000000000000000000602082015250565b6000610558602b836104eb565b9150610563826104fc565b604082019050919050565b600060208201905081810360008301526105878161054b565b9050919050565b610597816103b6565b82525050565b6105a681610439565b82525050565b6000819050919050565b6000819050919050565b60006105db6105d66105d1846105ac565b6105b6565b6104b7565b9050919050565b6105eb816105c0565b82525050565b6000606082019050610606600083018661058e565b610613602083018561059d565b61062060408301846105e2565b949350505050565b7f596f75206861766520616c726561647920646f776e766f74656420746869732060008201527f706f73742f636f6d6d656e742e00000000000000000000000000000000000000602082015250565b6000610684602d836104eb565b915061068f82610628565b604082019050919050565b600060208201905081810360008301526106b381610677565b9050919050565b6000819050919050565b60006106df6106da6106d5846106ba565b6105b6565b6104b7565b9050919050565b6106ef816106c4565b82525050565b600060608201905061070a600083018661058e565b610717602083018561059d565b61072460408301846106e6565b94935050505056fea2646970667358221220d2bcf74d55d84edfbd78410e812c57b4cb99c62afcc6dbe4c33cb8ac99747e9164736f6c63430008110033",
  "linkReferences": {},
  "deployedLinkReferences": {}
}